{
  "address": "0xe7f1725E7734CE288F8367e1Bb143E90bb3F0512",
  "abi": [
    {
      "inputs": [
        {
          "internalType": "address",
          "name": "_token",
          "type": "address"
        }
      ],
      "stateMutability": "nonpayable",
      "type": "constructor"
    },
    {
      "anonymous": false,
      "inputs": [
        {
          "indexed": false,
          "internalType": "string",
          "name": "lichessGameId",
          "type": "string"
        },
        {
          "indexed": false,
          "internalType": "address",
          "name": "winner",
          "type": "address"
        },
        {
          "indexed": false,
          "internalType": "uint256",
          "name": "prizeAmount",
          "type": "uint256"
        }
      ],
      "name": "GameComplete",
      "type": "event"
    },
    {
      "anonymous": false,
      "inputs": [
        {
          "indexed": false,
          "internalType": "string",
          "name": "lichessGameId",
          "type": "string"
        },
        {
          "indexed": false,
          "internalType": "address",
          "name": "player1",
          "type": "address"
        },
        {
          "indexed": false,
          "internalType": "uint256",
          "name": "betAmount",
          "type": "uint256"
        }
      ],
      "name": "GameCreated",
      "type": "event"
    },
    {
      "anonymous": false,
      "inputs": [
        {
          "indexed": false,
          "internalType": "string",
          "name": "lichessGameId",
          "type": "string"
        },
        {
          "indexed": false,
          "internalType": "address",
          "name": "player2",
          "type": "address"
        }
      ],
      "name": "GameJoined",
      "type": "event"
    },
    {
      "inputs": [
        {
          "internalType": "string",
          "name": "lichessGameId",
          "type": "string"
        },
        {
          "internalType": "address",
          "name": "winner",
          "type": "address"
        }
      ],
      "name": "completeGame",
      "outputs": [],
      "stateMutability": "nonpayable",
      "type": "function"
    },
    {
      "inputs": [
        {
          "internalType": "string",
          "name": "lichessGameId",
          "type": "string"
        },
        {
          "internalType": "uint256",
          "name": "betAmount",
          "type": "uint256"
        }
      ],
      "name": "createGame",
      "outputs": [],
      "stateMutability": "nonpayable",
      "type": "function"
    },
    {
      "inputs": [
        {
          "internalType": "string",
          "name": "",
          "type": "string"
        }
      ],
      "name": "games",
      "outputs": [
        {
          "internalType": "address",
          "name": "player1",
          "type": "address"
        },
        {
          "internalType": "address",
          "name": "player2",
          "type": "address"
        },
        {
          "internalType": "uint256",
          "name": "betAmount",
          "type": "uint256"
        },
        {
          "internalType": "string",
          "name": "lichessGameId",
          "type": "string"
        },
        {
          "internalType": "bool",
          "name": "isComplete",
          "type": "bool"
        },
        {
          "internalType": "address",
          "name": "winner",
          "type": "address"
        }
      ],
      "stateMutability": "view",
      "type": "function"
    },
    {
      "inputs": [
        {
          "internalType": "string",
          "name": "lichessGameId",
          "type": "string"
        }
      ],
      "name": "getGame",
      "outputs": [
        {
          "components": [
            {
              "internalType": "address",
              "name": "player1",
              "type": "address"
            },
            {
              "internalType": "address",
              "name": "player2",
              "type": "address"
            },
            {
              "internalType": "uint256",
              "name": "betAmount",
              "type": "uint256"
            },
            {
              "internalType": "string",
              "name": "lichessGameId",
              "type": "string"
            },
            {
              "internalType": "bool",
              "name": "isComplete",
              "type": "bool"
            },
            {
              "internalType": "address",
              "name": "winner",
              "type": "address"
            }
          ],
          "internalType": "struct ChessBet.Game",
          "name": "",
          "type": "tuple"
        }
      ],
      "stateMutability": "view",
      "type": "function"
    },
    {
      "inputs": [
        {
          "internalType": "address",
          "name": "player",
          "type": "address"
        }
      ],
      "name": "getPlayerGames",
      "outputs": [
        {
          "internalType": "string[]",
          "name": "",
          "type": "string[]"
        }
      ],
      "stateMutability": "view",
      "type": "function"
    },
    {
      "inputs": [
        {
          "internalType": "string",
          "name": "lichessGameId",
          "type": "string"
        }
      ],
      "name": "joinGame",
      "outputs": [],
      "stateMutability": "nonpayable",
      "type": "function"
    },
    {
      "inputs": [
        {
          "internalType": "address",
          "name": "",
          "type": "address"
        },
        {
          "internalType": "uint256",
          "name": "",
          "type": "uint256"
        }
      ],
      "name": "playerGames",
      "outputs": [
        {
          "internalType": "string",
          "name": "",
          "type": "string"
        }
      ],
      "stateMutability": "view",
      "type": "function"
    },
    {
      "inputs": [],
      "name": "token",
      "outputs": [
        {
          "internalType": "contract IERC20",
          "name": "",
          "type": "address"
        }
      ],
      "stateMutability": "view",
      "type": "function"
    }
  ],
  "transactionHash": "0xd34c711ef49c3c1f3abd2bb24410e90141525474f725662f15a301996c8b08d8",
  "args": [
    "0x5FbDB2315678afecb367f032d93F642f64180aa3"
  ],
  "numDeployments": 1,
  "solcInputHash": "12f35fdaeef9fbfc07e4f82fb48dbad2",
  "bytecode": "0x60a060405234801561001057600080fd5b5060405161142d38038061142d83398101604081905261002f91610045565b60016000556001600160a01b0316608052610075565b60006020828403121561005757600080fd5b81516001600160a01b038116811461006e57600080fd5b9392505050565b6080516113886100a56000396000818161015b01528181610499015281816108f50152610ca001526113886000f3fe608060405234801561001057600080fd5b50600436106100885760003560e01c80636d20931a1161005b5780636d20931a1461010b5780636dd5e67c14610130578063c0db826414610143578063fc0c546a1461015657600080fd5b80630a5694c21461008d578063129daf84146100b65780633d536a2e146100d65780634d92f652146100eb575b600080fd5b6100a061009b366004610e0f565b610195565b6040516100ad9190610e89565b60405180910390f35b6100c96100c4366004610ea3565b61024e565b6040516100ad9190610ebe565b6100e96100e4366004610fc3565b61033d565b005b6100fe6100f9366004610fc3565b6105d2565b6040516100ad9190611000565b61011e610119366004610fc3565b610712565b6040516100ad9695949392919061106a565b6100e961013e3660046110b5565b6107fa565b6100e96101513660046110fa565b610afc565b61017d7f000000000000000000000000000000000000000000000000000000000000000081565b6040516001600160a01b0390911681526020016100ad565b600260205281600052604060002081815481106101b157600080fd5b906000526020600020016000915091505080546101cd90611148565b80601f01602080910402602001604051908101604052809291908181526020018280546101f990611148565b80156102465780601f1061021b57610100808354040283529160200191610246565b820191906000526020600020905b81548152906001019060200180831161022957829003601f168201915b505050505081565b6001600160a01b0381166000908152600260209081526040808320805482518185028101850190935280835260609492939192909184015b828210156103325783829060005260206000200180546102a590611148565b80601f01602080910402602001604051908101604052809291908181526020018280546102d190611148565b801561031e5780601f106102f35761010080835404028352916020019161031e565b820191906000526020600020905b81548152906001019060200180831161030157829003601f168201915b505050505081526020019060010190610286565b505050509050919050565b610345610d9a565b60006001826040516103579190611182565b90815260405190819003602001902080549091506001600160a01b03166103bb5760405162461bcd60e51b815260206004820152601360248201527211d85b5948191bd95cc81b9bdd08195e1a5cdd606a1b60448201526064015b60405180910390fd5b60018101546001600160a01b0316156104165760405162461bcd60e51b815260206004820152601c60248201527f47616d6520616c7265616479206861732074776f20706c61796572730000000060448201526064016103b2565b8054336001600160a01b03909116036104715760405162461bcd60e51b815260206004820152601960248201527f43616e6e6f74206a6f696e20796f7572206f776e2067616d650000000000000060448201526064016103b2565b60028101546040516323b872dd60e01b815233600482015230602482015260448101919091527f00000000000000000000000000000000000000000000000000000000000000006001600160a01b0316906323b872dd906064016020604051808303816000875af11580156104ea573d6000803e3d6000fd5b505050506040513d601f19601f8201168201806040525081019061050e919061119e565b61054c5760405162461bcd60e51b815260206004820152600f60248201526e151c985b9cd9995c8819985a5b1959608a1b60448201526064016103b2565b600180820180546001600160a01b031916339081179091556000908152600260209081526040822080549384018155825290200161058a838261120f565b507f69b91453edfa045ed34feb2b032d08b6c3333ec2404f18b285c7ce7ffe69ba5182336040516105bc9291906112cf565b60405180910390a1506105cf6001600055565b50565b6040805160c0810182526000808252602082018190528183018190526060808301526080820181905260a08201529051600190610610908490611182565b90815260408051918290036020908101832060c08401835280546001600160a01b0390811685526001820154169184019190915260028101549183019190915260038101805460608401919061066590611148565b80601f016020809104026020016040519081016040528092919081815260200182805461069190611148565b80156106de5780601f106106b3576101008083540402835291602001916106de565b820191906000526020600020905b8154815290600101906020018083116106c157829003601f168201915b50505091835250506004919091015460ff81161515602083015261010090046001600160a01b031660409091015292915050565b80516020818301810180516001808352938301929094019190912092905281549082015460028301546003840180546001600160a01b03948516959490931693919261075d90611148565b80601f016020809104026020016040519081016040528092919081815260200182805461078990611148565b80156107d65780601f106107ab576101008083540402835291602001916107d6565b820191906000526020600020905b8154815290600101906020018083116107b957829003601f168201915b5050506004909301549192505060ff8116906001600160a01b036101009091041686565b610802610d9a565b6000811161085c5760405162461bcd60e51b815260206004820152602160248201527f42657420616d6f756e74206d7573742062652067726561746572207468616e206044820152600360fc1b60648201526084016103b2565b60006001600160a01b03166001836040516108779190611182565b908152604051908190036020019020546001600160a01b0316146108d35760405162461bcd60e51b815260206004820152601360248201527247616d6520616c72656164792065786973747360681b60448201526064016103b2565b6040516323b872dd60e01b8152336004820152306024820152604481018290527f00000000000000000000000000000000000000000000000000000000000000006001600160a01b0316906323b872dd906064016020604051808303816000875af1158015610946573d6000803e3d6000fd5b505050506040513d601f19601f8201168201806040525081019061096a919061119e565b6109a85760405162461bcd60e51b815260206004820152600f60248201526e151c985b9cd9995c8819985a5b1959608a1b60448201526064016103b2565b6040805160c081018252338152600060208201819052818301849052606082018590526080820181905260a082015290516001906109e7908590611182565b9081526040805160209281900383019020835181546001600160a01b03199081166001600160a01b0392831617835593850151600183018054909516911617909255820151600282015560608201516003820190610a45908261120f565b5060808201516004909101805460a0909301516001600160a01b031661010002610100600160a81b0319921515929092166001600160a81b03199093169290921717905533600090815260026020908152604082208054600181018255908352912001610ab2838261120f565b507f132c99221e3a8bd54ab4759163b62794bddb60ad4f2dc5f1e3604a5fe03bae57823383604051610ae6939291906112f9565b60405180910390a1610af86001600055565b5050565b610b04610d9a565b6000600183604051610b169190611182565b908152604051908190036020019020600481015490915060ff1615610b755760405162461bcd60e51b815260206004820152601560248201527447616d6520616c726561647920636f6d706c65746560581b60448201526064016103b2565b80546001600160a01b031615801590610b9a575060018101546001600160a01b031615155b610bd75760405162461bcd60e51b815260206004820152600e60248201526d47616d65206e6f7420726561647960901b60448201526064016103b2565b80546001600160a01b0383811691161480610c01575060018101546001600160a01b038381169116145b610c3e5760405162461bcd60e51b815260206004820152600e60248201526d24b73b30b634b2103bb4b73732b960911b60448201526064016103b2565b6004810180546001600160a01b038416610100026001600160a81b0319909116176001179055600280820154600091610c779190611327565b60405163a9059cbb60e01b81526001600160a01b038581166004830152602482018390529192507f00000000000000000000000000000000000000000000000000000000000000009091169063a9059cbb906044016020604051808303816000875af1158015610ceb573d6000803e3d6000fd5b505050506040513d601f19601f82011682018060405250810190610d0f919061119e565b610d535760405162461bcd60e51b8152602060048201526015602482015274141c9a5e99481d1c985b9cd9995c8819985a5b1959605a1b60448201526064016103b2565b7f2819fe1866a2ee95c2906f8a9f0d359acf89455ed017b2dd98378bc210f18652848483604051610d86939291906112f9565b60405180910390a15050610af86001600055565b600260005403610dec5760405162461bcd60e51b815260206004820152601f60248201527f5265656e7472616e637947756172643a207265656e7472616e742063616c6c0060448201526064016103b2565b6002600055565b80356001600160a01b0381168114610e0a57600080fd5b919050565b60008060408385031215610e2257600080fd5b610e2b83610df3565b946020939093013593505050565b60005b83811015610e54578181015183820152602001610e3c565b50506000910152565b60008151808452610e75816020860160208601610e39565b601f01601f19169290920160200192915050565b602081526000610e9c6020830184610e5d565b9392505050565b600060208284031215610eb557600080fd5b610e9c82610df3565b6000602080830181845280855180835260408601915060408160051b870101925083870160005b82811015610f1357603f19888603018452610f01858351610e5d565b94509285019290850190600101610ee5565b5092979650505050505050565b634e487b7160e01b600052604160045260246000fd5b600082601f830112610f4757600080fd5b813567ffffffffffffffff80821115610f6257610f62610f20565b604051601f8301601f19908116603f01168101908282118183101715610f8a57610f8a610f20565b81604052838152866020858801011115610fa357600080fd5b836020870160208301376000602085830101528094505050505092915050565b600060208284031215610fd557600080fd5b813567ffffffffffffffff811115610fec57600080fd5b610ff884828501610f36565b949350505050565b60208152600060018060a01b0380845116602084015280602085015116604084015260408401516060840152606084015160c0608085015261104560e0850182610e5d565b90506080850151151560a08501528160a08601511660c0850152809250505092915050565b600060018060a01b038089168352808816602084015286604084015260c0606084015261109a60c0840187610e5d565b94151560808401529290921660a09091015250949350505050565b600080604083850312156110c857600080fd5b823567ffffffffffffffff8111156110df57600080fd5b6110eb85828601610f36565b95602094909401359450505050565b6000806040838503121561110d57600080fd5b823567ffffffffffffffff81111561112457600080fd5b61113085828601610f36565b92505061113f60208401610df3565b90509250929050565b600181811c9082168061115c57607f821691505b60208210810361117c57634e487b7160e01b600052602260045260246000fd5b50919050565b60008251611194818460208701610e39565b9190910192915050565b6000602082840312156111b057600080fd5b81518015158114610e9c57600080fd5b601f82111561120a57600081815260208120601f850160051c810160208610156111e75750805b601f850160051c820191505b81811015611206578281556001016111f3565b5050505b505050565b815167ffffffffffffffff81111561122957611229610f20565b61123d816112378454611148565b846111c0565b602080601f831160018114611272576000841561125a5750858301515b600019600386901b1c1916600185901b178555611206565b600085815260208120601f198616915b828110156112a157888601518255948401946001909101908401611282565b50858210156112bf5787850151600019600388901b60f8161c191681555b5050505050600190811b01905550565b6040815260006112e26040830185610e5d565b905060018060a01b03831660208301529392505050565b60608152600061130c6060830186610e5d565b6001600160a01b039490941660208301525060400152919050565b808202811582820484141761134c57634e487b7160e01b600052601160045260246000fd5b9291505056fea264697066735822122089bc4f0de2a0bea72b65d65817844da16afc69bad6cdb0bb251304a9f241818364736f6c63430008130033",
  "devdoc": {
    "kind": "dev",
    "methods": {},
    "version": 1
  },
  "userdoc": {
    "kind": "user",
    "methods": {},
    "version": 1
  },
  "storageLayout": {
    "storage": [
      {
        "astId": 10,
        "contract": "contracts/ChessBet.sol:ChessBet",
        "label": "_status",
        "offset": 0,
        "slot": "0",
        "type": "t_uint256"
      },
      {
        "astId": 811,
        "contract": "contracts/ChessBet.sol:ChessBet",
        "label": "games",
        "offset": 0,
        "slot": "1",
        "type": "t_mapping(t_string_memory_ptr,t_struct(Game)806_storage)"
      },
      {
        "astId": 816,
        "contract": "contracts/ChessBet.sol:ChessBet",
        "label": "playerGames",
        "offset": 0,
        "slot": "2",
        "type": "t_mapping(t_address,t_array(t_string_storage)dyn_storage)"
      }
    ],
    "types": {
      "t_address": {
        "encoding": "inplace",
        "label": "address",
        "numberOfBytes": "20"
      },
      "t_array(t_string_storage)dyn_storage": {
        "base": "t_string_storage",
        "encoding": "dynamic_array",
        "label": "string[]",
        "numberOfBytes": "32"
      },
      "t_bool": {
        "encoding": "inplace",
        "label": "bool",
        "numberOfBytes": "1"
      },
      "t_mapping(t_address,t_array(t_string_storage)dyn_storage)": {
        "encoding": "mapping",
        "key": "t_address",
        "label": "mapping(address => string[])",
        "numberOfBytes": "32",
        "value": "t_array(t_string_storage)dyn_storage"
      },
      "t_mapping(t_string_memory_ptr,t_struct(Game)806_storage)": {
        "encoding": "mapping",
        "key": "t_string_memory_ptr",
        "label": "mapping(string => struct ChessBet.Game)",
        "numberOfBytes": "32",
        "value": "t_struct(Game)806_storage"
      },
      "t_string_memory_ptr": {
        "encoding": "bytes",
        "label": "string",
        "numberOfBytes": "32"
      },
      "t_string_storage": {
        "encoding": "bytes",
        "label": "string",
        "numberOfBytes": "32"
      },
      "t_struct(Game)806_storage": {
        "encoding": "inplace",
        "label": "struct ChessBet.Game",
        "members": [
          {
            "astId": 795,
            "contract": "contracts/ChessBet.sol:ChessBet",
            "label": "player1",
            "offset": 0,
            "slot": "0",
            "type": "t_address"
          },
          {
            "astId": 797,
            "contract": "contracts/ChessBet.sol:ChessBet",
            "label": "player2",
            "offset": 0,
            "slot": "1",
            "type": "t_address"
          },
          {
            "astId": 799,
            "contract": "contracts/ChessBet.sol:ChessBet",
            "label": "betAmount",
            "offset": 0,
            "slot": "2",
            "type": "t_uint256"
          },
          {
            "astId": 801,
            "contract": "contracts/ChessBet.sol:ChessBet",
            "label": "lichessGameId",
            "offset": 0,
            "slot": "3",
            "type": "t_string_storage"
          },
          {
            "astId": 803,
            "contract": "contracts/ChessBet.sol:ChessBet",
            "label": "isComplete",
            "offset": 0,
            "slot": "4",
            "type": "t_bool"
          },
          {
            "astId": 805,
            "contract": "contracts/ChessBet.sol:ChessBet",
            "label": "winner",
            "offset": 1,
            "slot": "4",
            "type": "t_address"
          }
        ],
        "numberOfBytes": "160"
      },
      "t_uint256": {
        "encoding": "inplace",
        "label": "uint256",
        "numberOfBytes": "32"
      }
    }
  }
}